:1000000002308A00AA2A00008E30F7003308F80078
:100010003208F900FA01F808031D18287908F800D9
:10002000F9010830F702F808031D1828F701202805
:100030000310F81B1F28F90DF80DF7031828F81303
:100040000800320803199128BA00360803199128CC
:10005000BA07031832287F30BA02031C912803190B
:10006000912836288130BA07031891283A08F700FA
:10007000F801F901FA013308BE00BE173408BD00CB
:100080003508BC001830BA00BB013C1C5F28390899
:10009000FA07031C5128F90A031D5128F80A03190D
:1000A000BB173808F907031C5828F80A0319BB17AF
:1000B0003708B400B4173408F8070318BB17BB0D92
:1000C000F80CF90CFA0CBE0CBD0CBC0C0310BA0BEE
:1000D00044280130F70703189128F81B7628BE0D35
:1000E000FA0DF90DF80DF70303199128BE1F8728A3
:1000F000FA0A031D8728F90A031D8728F80A031D39
:100100008728F80CF90CFA0CF70A03199128330820
:10011000BB003708BB06BB1F8F28F8179528F813BC
:100120009528F701F801F901FA01080036080319CA
:100130005B29C2003A0803195B29C202031CA528E7
:100140007F30C20703185B29AB288130C202031C31
:100150005B2903195B294208F700F801F901FA014C
:10016000C1013708C000C0173808BF003908BE00F9
:100170001930C2003D08BE020318CE280130BF026C
:100180000318CE28C0020318CE28C1020318CE28B7
:10019000C10AC00ABF0A3D08BE0700293C08BF02C9
:1001A0000318E9280130C0020318E928C102031826
:1001B000E928C10AC00A3C08BF073D08BE07031C66
:1001C0000029BF0A031D0029C00A031D0029C10A16
:1001D00000293B088038C0020318FF280130C10203
:1001E0000318FF28C10A3B088038C0073C08BF0736
:1001F000031CDD28C00A031DDD28C10ADD287A148E
:10020000C20B03290E290310BE0DBF0DC00DC10D79
:100210000310FA0DF90DF80DC30DBA28431C162969
:100220000310F80CF90CFA0CC30C1929F703031985
:100230005B29C31B42290310BE0DBF0DC00DC10DAC
:100240003D08BE0203182E290130BF0203182E29D3
:10025000C00203182E29C102031C51293C08BF0209
:10026000031839290130C00203183929C102031CBF
:1002700051293B088038C002031842290130C102CD
:10028000031C5129FA0A031D5129F90A031D51299A
:10029000F80A031D5129F70A03195B29F80CF90C18
:1002A000FA0C3708C2003B08C206C21F5929F817CA
:1002B0005F29F8135F29F701F801F901FA01080035
:1002C0008E30F7003208F7023308F9003408F800DE
:1002D000F917F708031977290310F908031D732983
:1002E000F80803197729F90CF80CF70B6C29B31FE0
:1002F0007E29F809F909F80A0319F90A08000030FB
:10030000F8001F08C73978049F002130F700F70B69
:1003100087291F151F198A291E08F90083161E0830
:10032000F8007908FA001E088312B2007908B300B9
:1003300004207A08B1007908B0007808AF00770887
:10034000AE003108B5003008B4002F08B3002E0805
:10035000B200B901B8014830B7008430B60021209E
:100360007A08B5007908B4007808B3007708B200BD
:100370007A08B9007908B8007808B7007708B6009D
:10038000BD01C030BC007F30BB008830BA00962071
:100390007A08B5007908B4007808B3007708B2008D
:1003A00060217808AC000830F8001F08C7397804CD
:1003B0009F002130F700F70BDB291F151F19DE29DD
:1003C0001E08F90083161E08F8007908FA001E08B6
:1003D0008312B2007908B30004207A08B1007908CA
:1003E000B0007808AF007708AE003108B5003008DB
:1003F000B4002F08B3002E08B200B901B80148308C
:10040000B7008430B60021207A08B5007908B4001E
:100410007808B3007708B2007A08B9007908B80004
:100420007808B7007708B600BD01C030BC007F3047
:10043000BB008830BA0096207A08B5007908B4006D
:100440007808B3007708B20060217808AD008A11FF
:100450000A12DD2A3308F80132020318322A320860
:10046000F7003E2AF7010830B400B20DF70D33084B
:1004700077020318F700F80DB40B352A0800323064
:100480008400831300080319522A0630F800F7018C
:10049000F70B482AF80B472A7B30F700F70B4E2A58
:1004A000800B452A08002C08B2000A30B3002A222B
:1004B0007708AB002C08B2000A30B3002A22780873
:1004C000AA000130870020302A078400831380307F
:1004D0000002B20086000530B2003F2202308700E1
:1004E00020302B07840083130008B20086000530FB
:1004F000B2003F222D08B2000A30B3002A2277084A
:10050000AB002D08B2000A30B3002A227808AA00F6
:100510000430870020302A078400831380300002D3
:10052000B20086000530B2003F220830870020303C
:100530002B07840083130008B20086000530B20048
:100540003F228701FF3086000130B2003F228A112E
:100550000A12DE2A03081F39830083161F149F1412
:100560001F159F1107309C008313C0308312A00019
:10057000F930A100A430A200B030A3009930A4004B
:100580009230A5008230A600F830A7008030A80085
:100590009030A90000308316860087001F13831255
:1005A0001F179F1783169F1783121F1483161F1080
:1005B0009F101F119F1183127F29532ADC2A630089
:02400E00721F1F
:00000001FF
;PIC16F877A
;CRC=DA81  CREATED="20-Thg11-23 19:47"
