:1000000000308A007C2800002D3084008313000813
:10001000031917280630F800F701F70B0D28F80B25
:100020000C287B30F700F70B1328800B0A280800F8
:100030000130A2000230A3000430A4000830A50063
:100040001030A6002030A7004030A8008030A90062
:10005000A1012108073C031C6928223021078400E4
:1000600083130008AA008316860183122A088600DB
:1000700001302107AB00AD012B08AC000330AF000D
:10008000E830AE001030B000F701FA01AD0CAC0C56
:10009000031C50282E08F7070318FA0A2F08FA073E
:1000A000FA0CF70CF90CF80CB00B46287908AB00E9
:1000B0007808AA007908AC00AC0AAC0303196428DC
:1000C000FF30AD0004205D282A08AD000420A10AFD
:1000D000292883168601FF30831286000C30AA007F
:1000E000FA30AD000420AA0B702883168601831213
:1000F00086018A110A12892803081F398300831692
:100100001F149F141F159F1107309C008313831227
:0601100018288828630096
:02400E00723FFF
:00000001FF
;PIC16F877A
;CRC=C373  CREATED="07-Thg11-23 13:31"
