:1000000000308A00BA280000FF00030E8301A1001F
:100010000A08A0008A010408A2007708A300780853
:10002000A4007908A5007A08A600831383128C30F7
:100030008400001C1D280C182E2822088400230888
:10004000F7002408F8002508F9002608FA0020081F
:100050008A00210E8300FF0E7F0E09008A110A120A
:1000600031288E0185308F00ED308E000000271082
:100070002708831687000130831287060C108A1127
:100080000A121D28343084008313000803195528F0
:100090000630F800F701F70B4B28F80B4A287B30A5
:1000A000F700F70B5128800B482808000130A90001
:1000B0000230AA000430AB000830AC001030AD00B4
:1000C0002030AE004030AF008030B000A8012808DA
:1000D000073C031CA7282930280784008313000845
:1000E000B10083168601831231088600013028078B
:1000F000B200B4013208B3000330B600E830B500F6
:100100001030B700F701FA01B40CB30C031C8E28B1
:100110003508F7070318FA0A3608FA07FA0CF70C3D
:10012000F90CF80CB70B84287908B2007808B100F4
:100130007908B300B30AB3030319A228FF30B4004F
:1001400042209B283108B4004220A80A6728831661
:100150008601FF30831286000C30B100FA30B40003
:100160004220B10BAE2883168601831286018A11C4
:100170000A12DB2803081F398300FF30A70083160B
:100180001F149F141F159F1107309C0083138312A7
:100190002710270883168700B530831290008E0140
:1001A00085308F00ED308E00000083160C14C030B7
:0A01B00083128B045628DA2863003E
:02400E003A3F37
:00000001FF
;PIC16F877A
;CRC=72D4  CREATED="07-Thg11-23 13:28"
