:1000000001308A0056290000FF00030E8301A10081
:100010000A08A0008A010408A2007708A300780853
:10002000A4007908A5007A08A600831383128B1E0A
:100030001B280B192C28220884002308F700240809
:10004000F8002508F9002608FA0020088A00210E89
:100050008300FF0E7F0E09008A110A122F286430D8
:10006000810083160814831208183E28831608148A
:100070008312081C3628A70A0319A80A83168814B5
:10008000831288184C28831688148312881C4328EE
:1000900027080319A803A7032808023C03185928B6
:1000A000FF3A031D57282708E73C03185928A801E1
:1000B000A7010B118A110A121B28F801F901F70197
:1000C000FA013908031D6728380803198128103000
:1000D000BA000310B60DB70DF70DFA0D39087A0204
:1000E000031D742838087702031C7D283808F7029E
:1000F000031CFA033908FA020314F80DF90DBA0BC0
:10010000692808003408003A0319A228013A0319A3
:10011000A528033A0319A828013A0319AB28073A7E
:100120000319AE28013A0319B128033A0319B42878
:10013000013A0319B7280F3A0319BA28013A0319EB
:10014000BD28C028C030F800C228F930F800C22805
:10015000A430F800C228B030F800C2289930F80066
:10016000C2289230F800C2288230F800C228F83045
:10017000F800C2288030F800C2289030F800C22869
:10018000FF30F8000800343084008313000803199E
:10019000D7280130F800F701F70BCC28F80BCB2853
:1001A0004A30F700F70BD228D528800BC928080061
:1001B0000030A900831687010430831287002B08C2
:1001C000B7002A08B600B9010A30B8005D207708E8
:1001D000AC007A08AD002C08B4008220AF0178088A
:1001E000AE008316860183122E0886006430B400A8
:1001F000C3200030A90083168701023083128700D4
:100200002B08B7002A08B600B9010A30B8005D20F3
:100210007908B5007808B4007908B7007808B60006
:10022000B9010A30B8005D207708AC007A08AD004B
:100230002C08B4008220B1017808B0008316860132
:100240008312300886006430B400C3200030A90057
:10025000831687010130831287002B08B7002A0814
:10026000B600B9016430B8005D207908B50078089F
:10027000B4007908B7007808B600B9010A30B800B0
:100280005D207708AC007A08AD002C08B40082200D
:10029000B3017808B2008316860183123208860003
:1002A0006430B400C3208A110A12782903081F3968
:1002B00083000330A800E730A700FF30A9008316B1
:1002C0001F149F141F159F1107309C008313FF30CC
:1002D00088000108C0390138810064308312810030
:1002E0008B16C0308B042808AB002708AA00D8283A
:0402F000732963000B
:02400E00713F00
:00000001FF
;PIC16F877A
;CRC=405F  CREATED="19-Thg11-23 10:55"
