:1000000003308A00C12B0000C734611074396910B5
:10001000522B311D2000C734611074396910522BE6
:10002000311D20003930840083130008031925286E
:100030000630F800F701F70B1B28F80B1A287B3065
:10004000F700F70B2128800B1828080040182A28F1
:1000500087112B288715A01120088316870083128B
:10006000C0183428071235280716201220088316D6
:100070008700831240193E2887123F288716A01256
:100080002008831687008312C019482807134928BF
:100090000717201320088316870000008312071417
:1000A00020102008831687000330F700F70B56282E
:1000B000831207102010200883168700831208007F
:1000C000C101A0152008831687000030831287190C
:1000D0000130C104201620088316870000308312E7
:1000E000071A0130F7000310F70D7708C104A016B6
:1000F00020088316870000308312871A0130F7002A
:10010000F70DF70DFC30F7057708C104201720081C
:100110008316870000308312071B0130F700F70DAC
:10012000F70DF70DF830F7057708C1044108F8001E
:10013000080020102008831687008312A0102008D2
:1001400083168700831220112008831687008312EC
:100150008710A010200883168700871507168716BA
:100160000717831207152011200883168700000047
:1001700083120714201020088316870000008312C2
:1001800060207808C0000710201020088316870020
:100190000000831207142010200883168700D0283F
:1001A000D1280000831260207808BF0007102010BB
:1001B0002008831687008312A01120088316870069
:1001C000831220122008831687008312A0122008B1
:1001D000831687008312201320088316870083125A
:1001E000400EF700F030F70577083F04F800780874
:1001F000BF00BF1FFD288316AD28BD08031D0229BF
:10020000871003298714A010200883168700000098
:100210008312071120112008831687000000831223
:100220000710201020088316870083123E0EBF009F
:100230000F30BF053F08C00026203E080F39BF0021
:10024000C000262008002830AC000C30AD00013082
:10025000AE000630AF00071020102008831687007C
:1002600083128710A01020088316870083120711BD
:1002700020112008831687008312A01120088316FE
:100280008700831220122008831687008312A01291
:100290002008831687008312201320088316870006
:1002A000831220102008831687008312A0102008D4
:1002B00083168700831220112008831687000F30D1
:1002C0008312B90012200130AB002B08033C031C41
:1002D00071290330C00026200530B9001220AB0A76
:1002E00065290230C00026200530B9001220AB017C
:1002F0002B08033C031C88292C302B078400831314
:100300000008B000BD013008BE009920AB0A782972
:100310008A110A12E42B3A0B8E2991294030BB0036
:100320009229BB0101303902BB073B088038BC0071
:10033000BD013C08BE00992008003808073A03199F
:10034000AB290B3A0319B029063A0319B829023A26
:100350000319BE29C3290130B900BA008B21C8296D
:10036000BD010130BE0099200230B9001220C82919
:100370000130B9000230BA008B21C829BD0110300C
:10038000BE009920C8290130BD003808BE00992060
:1003900008000B08AB008B13831603178C170C1483
:1003A0000000000083120313AB1B8B1703170C080C
:1003B0007F3903191D2A0313AB0003170D0803131C
:1003C000AC0003170F080313AD002B08B8009D21E4
:1003D0002C0803178D0003132D0803178F00031338
:1003E0000B08AE008B13831603178C170C14000038
:1003F000000083120313AE1B8B1703170C0D0E0D99
:100400007F3903191D2A0313AB0003170D080313CB
:10041000AC0003170F080313AD002B08B8009D2193
:100420002C0803178D0003132D0803178F008D0A66
:1004300003198F0A0313C92903170313080083182C
:10044000242A403084008313F701F801F901FA01EE
:10045000C001C101C201C3013F083E043D043C0488
:100460000319622A2030C4000310B80DB90DBA0D6B
:10047000BB0DC00DC10DC20DC30D3F084302031DCE
:100480004B2A3E084202031D4B2A3D084102031D30
:100490004B2A3C084002031C5C2A3C08C0023D0871
:1004A000031C3D0FC1023E08031C3E0FC2023F0861
:1004B000031C3F0FC3020314F70DF80DF90DFA0DDD
:1004C000C40B342A40088000840A41088000840A52
:1004D00042088000840A4308800008000408B00035
:1004E0002F08B2000319002B2E08BB002D08BA00FC
:1004F0002C08B9002B08B800BF01BE012030BD0098
:100500008230BC0038080319F22AC0003C080319E5
:10051000F22AC0070318932A7F30C002031CF22A74
:100520000319F22A972A8130C0070318F22A4008DB
:10053000F700F801F901FA013908C400C4173A08B4
:10054000C3003B08C2001830C000C101421CC02AD1
:100550003F08FA07031CB22AF90A031DB22AF80A57
:100560000319C1173E08F907031CB92AF80A031931
:10057000C1173D08BA00BA173A08F8070318C1179F
:10058000C10DF80CF90CFA0CC40CC30CC20C03100E
:10059000C00BA52A0130F7070318F22AF81BD72A47
:1005A000C40DFA0DF90DF80DF7030319F22AC41F53
:1005B000E82AFA0A031DE82AF90A031DE82AF80ABC
:1005C000031DE82AF80CF90CFA0CF70A0319F22AB1
:1005D0003908C1003D08C106C11FF02AF817F62AE4
:1005E000F813F62AF701F801F901FA017A08AE00CA
:1005F0007908AD007808AC007708AB00B20B742A1C
:100600002E08BB002D08BA002C08B9002B08B80032
:100610003808B63CB800FA013908BC00B917031015
:10062000B90CBA0CBB0CFA0CF90CF80CF70CB80BA3
:100630000F2BBC1F262BF709F809F909FA09F70A4D
:100640000319F80A0319F90A0319FA0A7A08AE001D
:100650007908AD007808AC007708AB00AE1F3D2BE1
:10066000B003B016AB09AC09AD09AE09AB0A03196A
:10067000AC0A0319AD0A0319AE0A3B30B7009A3031
:10068000B600CA30B500B4010A30B2002F08031911
:10069000B00A83142B30840083132E08BB002D086E
:1006A000BA002C08B9002B08B8003708BF0036087C
:1006B000BE003508BD003408BC001F227808F708CA
:1006C000031D752B2F0A32020319752B30080319ED
:1006D000772B0F39320203196F2B0318A72BB01B8E
:1006E000A72B301B772B2030A32B2030B005B01E5A
:1006F000852BB0122F08031DB0037708B0002D30F2
:10070000B8009D213008F700B0012F083202031D08
:10071000932B7708B0002E30B8009D213008F700E9
:100720002030B00500303030B01EA32BB0122F089F
:10073000031DB0037708B0002D30B8009D213008AC
:10074000F700B0013030F7077708B8009D2183101B
:100750003708BB003608BA003508B9003408B800BD
:10076000BF01BE01BD010A30BC001F227A08B700DC
:100770007908B6007808B5007708B400B20B492BA9
:10078000080003081F398300FF30A000AA01A90157
:1007900083161F149F141F159F1107309C0083138D
:1007A000003087008312A00083161F1383121F17C7
:1007B0009F1783169F1383121F1483161F109F10F9
:1007C0001F159F11831223290130B900BA008B2114
:1007D000043003178D0000308F000313C9210E3041
:1007E000B9000130BA008B21893084002408AE00A2
:1007F0002308AD002208AC002108AB000230AF0096
:100800006E222030B8009D210130B9000230BA00BC
:100810008B210B3003178D0000308F000313C9218B
:100820000E30B9000230BA008B21893084002808CC
:10083000AE002708AD002608AC002508AB0002304A
:0E084000AF006E222030B8009D21E42B630033
:02400E00723FFF
:00000001FF
;PIC16F877A
;CRC=D2E8  CREATED="20-Thg11-23 23:47"
