:1000000000308A0072280000FF00030E8301A10067
:100010000A08A0008A010408A2007708A300780853
:10002000A4007908A5007A08A600831383128C30F7
:100030008400001C1D280C1832288B1E21280B1947
:100040003528220884002308F7002408F800250832
:10005000F9002608FA0020088A00210E8300FF0E0E
:100060007F0E09008A110A124C288A110A125E2892
:100070002B3084008313000803194B280130F8004B
:10008000F701F70B4128F80B40289E30F700F70BDB
:100090004728800B3E2808008E019E308F00573085
:1000A0008E0000008316061001308312860602308F
:1000B000AB0038200C108A110A122128831606146E
:1000C000831206186A2883168614831286186A28F3
:1000D00006116B2806158316061183120B118A115F
:1000E0000A12212803081F39830083161F149F1446
:1000F0001F159F1107309C008313B53083129000A9
:100100008E019E308F0057308E00000083160C1435
:10011000C03083128B0483160108C7390838810068
:10012000831281018B16C0308B04A8012808013C82
:10013000031CBE2883168610831286140310280D14
:10014000023EA900A7018B1BA7178B132908AB0040
:100150003820A71B8B178316861083128610031076
:10016000280D013EA900A7018B1BA7178B13290897
:10017000AB003820A71B8B17A80A96289528630088
:02400E00723FFF
:00000001FF
;PIC16F877A
;CRC=4C14  CREATED="07-Thg11-23 17:01"
