:1000000001308A002E290000FF00030E8301A100A9
:100010000A08A0008A010408A2007708A300780853
:10002000A4007908A5007A08A600831383128B1E0A
:100030001B280B192C28220884002308F700240809
:10004000F8002508F9002608FA0020088A00210E89
:100050008300FF0E7F0E09008A110A122F286430D8
:10006000810083160814831208183C28831608148C
:100070008312081C3628A70A83168814831288184E
:100080004728831688148312881C4128A7030B1164
:100090008A110A121B283008F8012F02031853286E
:1000A0002F08F7005F28F7010830B100AF0DF70DFA
:1000B000300877020318F700F80DB10B5628080036
:1000C0002E08003A03198028013A03198328033ABD
:1000D00003198628013A03198928073A03198C283D
:1000E000013A03198F28033A03199228013A031998
:1000F00095280F3A03199828013A03199B289E283E
:10010000C030F800A028F930F800A028A430F8008A
:10011000A028B030F800A0289930F800A02892302C
:10012000F800A0288230F800A028F830F800A028B5
:100130008030F800A0289030F800A028FF30F800A8
:1001400008002F308400831300080319B4280630F8
:10015000F800F701F70BAA28F80BA9287B30F70065
:10016000F70BB028800BA72808000030A8008316E2
:1001700087010430831287002908AF000A30B000DD
:100180004B207708AA002A08AE0060207808AB0050
:10019000831686010F308312860083168601831230
:1001A0002B0886000430AE00FA30AF00A120AE0B61
:1001B000D4280030A80083168701023083128700FC
:1001C0002908AF000A30B0004B207808AF000A3091
:1001D000B0004B207708AA002A08AE0060207808FB
:1001E000AC00831686010F308312860083168601C9
:1001F00083122C0886000430AE00FA30AF00A12034
:10020000AE0BFD280030A800831687010130831251
:1002100087002908AF006430B0004B207808AF0099
:100220000A30B0004B207708AA002A08AE006020F0
:100230007808AD00831686010F308312860083167E
:10024000860183122D0886000430AE00FA30AF001C
:10025000A120AE0B26298A110A124C2903081F3946
:1002600083000230A700FF30A80083161F149F14DC
:100270001F159F1107309C008313FF308800010871
:10028000C039013881006430831281008B16C03080
:0C0290008B042708A900B5284929630049
:02400E00723FFF
:00000001FF
;PIC16F877A
;CRC=6AF2  CREATED="19-Thg11-23 10:44"
